{
  "contractName": "Payroll",
  "abi": [
    {
      "constant": false,
      "inputs": [],
      "name": "hasEnoughFund",
      "outputs": [
        {
          "name": "",
          "type": "bool"
        }
      ],
      "payable": false,
      "stateMutability": "nonpayable",
      "type": "function"
    },
    {
      "constant": false,
      "inputs": [],
      "name": "calculateRunway",
      "outputs": [
        {
          "name": "",
          "type": "uint256"
        }
      ],
      "payable": false,
      "stateMutability": "nonpayable",
      "type": "function"
    },
    {
      "constant": false,
      "inputs": [
        {
          "name": "employeeId",
          "type": "address"
        },
        {
          "name": "salary",
          "type": "uint256"
        }
      ],
      "name": "updateEmployee",
      "outputs": [],
      "payable": false,
      "stateMutability": "nonpayable",
      "type": "function"
    },
    {
      "constant": false,
      "inputs": [
        {
          "name": "newEmployeeId",
          "type": "address"
        }
      ],
      "name": "changePaymentAddress",
      "outputs": [],
      "payable": false,
      "stateMutability": "nonpayable",
      "type": "function"
    },
    {
      "constant": false,
      "inputs": [
        {
          "name": "employeeId",
          "type": "address"
        }
      ],
      "name": "checkEmployee",
      "outputs": [
        {
          "name": "salary",
          "type": "uint256"
        },
        {
          "name": "lastPayDay",
          "type": "uint256"
        }
      ],
      "payable": false,
      "stateMutability": "nonpayable",
      "type": "function"
    },
    {
      "constant": false,
      "inputs": [],
      "name": "checkInfo",
      "outputs": [
        {
          "name": "balance",
          "type": "uint256"
        },
        {
          "name": "runway",
          "type": "uint256"
        },
        {
          "name": "employeeCount",
          "type": "uint256"
        }
      ],
      "payable": false,
      "stateMutability": "nonpayable",
      "type": "function"
    },
    {
      "constant": true,
      "inputs": [],
      "name": "owner",
      "outputs": [
        {
          "name": "",
          "type": "address"
        }
      ],
      "payable": false,
      "stateMutability": "view",
      "type": "function"
    },
    {
      "constant": false,
      "inputs": [],
      "name": "addFund",
      "outputs": [
        {
          "name": "",
          "type": "uint256"
        }
      ],
      "payable": true,
      "stateMutability": "payable",
      "type": "function"
    },
    {
      "constant": false,
      "inputs": [
        {
          "name": "",
          "type": "address"
        }
      ],
      "name": "getPaid",
      "outputs": [
        {
          "name": "id",
          "type": "address"
        },
        {
          "name": "salary",
          "type": "uint256"
        },
        {
          "name": "lastPayDay",
          "type": "uint256"
        }
      ],
      "payable": false,
      "stateMutability": "nonpayable",
      "type": "function"
    },
    {
      "constant": true,
      "inputs": [
        {
          "name": "",
          "type": "address"
        }
      ],
      "name": "employees",
      "outputs": [
        {
          "name": "id",
          "type": "address"
        },
        {
          "name": "salary",
          "type": "uint256"
        },
        {
          "name": "lastPayDay",
          "type": "uint256"
        }
      ],
      "payable": false,
      "stateMutability": "view",
      "type": "function"
    },
    {
      "constant": false,
      "inputs": [
        {
          "name": "employeeId",
          "type": "address"
        }
      ],
      "name": "removeEmployee",
      "outputs": [
        {
          "name": "",
          "type": "uint256"
        }
      ],
      "payable": false,
      "stateMutability": "nonpayable",
      "type": "function"
    },
    {
      "constant": false,
      "inputs": [
        {
          "name": "employeeId",
          "type": "address"
        },
        {
          "name": "salary",
          "type": "uint256"
        }
      ],
      "name": "currentTime",
      "outputs": [
        {
          "name": "",
          "type": "uint256"
        }
      ],
      "payable": false,
      "stateMutability": "nonpayable",
      "type": "function"
    },
    {
      "constant": false,
      "inputs": [
        {
          "name": "employeeId",
          "type": "address"
        },
        {
          "name": "salary",
          "type": "uint256"
        }
      ],
      "name": "addEmployee",
      "outputs": [],
      "payable": false,
      "stateMutability": "nonpayable",
      "type": "function"
    },
    {
      "anonymous": false,
      "inputs": [
        {
          "indexed": true,
          "name": "newOwner",
          "type": "address"
        },
        {
          "indexed": true,
          "name": "newOwner",
          "type": "address"
        }
      ],
      "name": "transferOwnership",
      "type": "function",
      "constant": false,
      "outputs": [],
      "payable": false,
      "stateMutability": "nonpayable"
    },
    {
      "anonymous": false,
      "inputs": [
        {
          "indexed": true,
          "name": "",
          "type": "uint256"
        },
        {
          "indexed": true,
          "name": "newOwner",
          "type": "address"
        }
      ],
      "name": "EmployeeList",
      "type": "function",
      "constant": true,
      "outputs": [
        {
          "name": "",
          "type": "address"
        }
      ],
      "payable": false,
      "stateMutability": "view"
    },
    {
      "anonymous": false,
      "inputs": [
        {
          "indexed": true,
          "name": "previousOwner",
          "type": "address"
        },
        {
          "indexed": true,
          "name": "newOwner",
          "type": "address"
        }
      ],
      "name": "OwnershipTransferred",
      "type": "event"
    }
  ],
  "bytecode": "0x6060604052336000806101000a81548173ffffffffffffffffffffffffffffffffffffffff021916908373ffffffffffffffffffffffffffffffffffffffff160217905550611752806100536000396000f3006060604052600436106100db576000357c0100000000000000000000000000000000000000000000000000000000900463ffffffff16806323fed09e146100e05780634ec195121461010d5780635e91d8ec146101365780637124d613146101785780637cf562b7146101b157806385a96258146102055780638da5cb5b1461023c578063a2f09dfa14610291578063cf41d6f8146102af578063d0678947146102c4578063d108177a1461034b578063d18e81b314610384578063e7fd9a13146103ad578063f2fde38b146103ef578063ff978e9b14610428575b600080fd5b34156100eb57600080fd5b6100f361048b565b604051808215151515815260200191505060405180910390f35b341561011857600080fd5b61012061049c565b6040518082815260200191505060405180910390f35b341561014157600080fd5b610176600480803573ffffffffffffffffffffffffffffffffffffffff169060200190919080359060200190919050506104cf565b005b341561018357600080fd5b6101af600480803573ffffffffffffffffffffffffffffffffffffffff16906020019091905050610778565b005b34156101bc57600080fd5b6101e8600480803573ffffffffffffffffffffffffffffffffffffffff16906020019091905050610a60565b604051808381526020018281526020019250505060405180910390f35b341561021057600080fd5b610218610af2565b60405180848152602001838152602001828152602001935050505060405180910390f35b341561024757600080fd5b61024f610b31565b604051808273ffffffffffffffffffffffffffffffffffffffff1673ffffffffffffffffffffffffffffffffffffffff16815260200191505060405180910390f35b610299610b56565b6040518082815260200191505060405180910390f35b34156102ba57600080fd5b6102c2610b75565b005b34156102cf57600080fd5b6102fb600480803573ffffffffffffffffffffffffffffffffffffffff16906020019091905050610d25565b604051808473ffffffffffffffffffffffffffffffffffffffff1673ffffffffffffffffffffffffffffffffffffffff168152602001838152602001828152602001935050505060405180910390f35b341561035657600080fd5b610382600480803573ffffffffffffffffffffffffffffffffffffffff16906020019091905050610d6f565b005b341561038f57600080fd5b610397611122565b6040518082815260200191505060405180910390f35b34156103b857600080fd5b6103ed600480803573ffffffffffffffffffffffffffffffffffffffff1690602001909190803590602001909190505061112a565b005b34156103fa57600080fd5b610426600480803573ffffffffffffffffffffffffffffffffffffffff169060200190919050506113fd565b005b341561043357600080fd5b6104496004808035906020019091905050611552565b604051808273ffffffffffffffffffffffffffffffffffffffff1673ffffffffffffffffffffffffffffffffffffffff16815260200191505060405180910390f35b60008061049661049c565b11905090565b60006104ca6001543073ffffffffffffffffffffffffffffffffffffffff163161159190919063ffffffff16565b905090565b60008060009054906101000a900473ffffffffffffffffffffffffffffffffffffffff1673ffffffffffffffffffffffffffffffffffffffff163373ffffffffffffffffffffffffffffffffffffffff1614151561052c57600080fd5b826000600460008373ffffffffffffffffffffffffffffffffffffffff1673ffffffffffffffffffffffffffffffffffffffff168152602001908152602001600020905060008160000160009054906101000a900473ffffffffffffffffffffffffffffffffffffffff1673ffffffffffffffffffffffffffffffffffffffff16141515156105b757fe5b600460008673ffffffffffffffffffffffffffffffffffffffff1673ffffffffffffffffffffffffffffffffffffffff168152602001908152602001600020925061067783606060405190810160405290816000820160009054906101000a900473ffffffffffffffffffffffffffffffffffffffff1673ffffffffffffffffffffffffffffffffffffffff1673ffffffffffffffffffffffffffffffffffffffff168152602001600182015481526020016002820154815250506115ac565b6106bc610695670de0b6b3a76400008661163f90919063ffffffff16565b6106ae856001015460015461167290919063ffffffff16565b61168b90919063ffffffff16565b6001819055506106dd670de0b6b3a76400008561163f90919063ffffffff16565b600460008773ffffffffffffffffffffffffffffffffffffffff1673ffffffffffffffffffffffffffffffffffffffff1681526020019081526020016000206001018190555061072b611122565b600460008773ffffffffffffffffffffffffffffffffffffffff1673ffffffffffffffffffffffffffffffffffffffff168152602001908152602001600020600201819055505050505050565b336000600460008373ffffffffffffffffffffffffffffffffffffffff1673ffffffffffffffffffffffffffffffffffffffff168152602001908152602001600020905060008160000160009054906101000a900473ffffffffffffffffffffffffffffffffffffffff1673ffffffffffffffffffffffffffffffffffffffff161415151561080357fe5b826000600460008373ffffffffffffffffffffffffffffffffffffffff1673ffffffffffffffffffffffffffffffffffffffff168152602001908152602001600020905060008160000160009054906101000a900473ffffffffffffffffffffffffffffffffffffffff1673ffffffffffffffffffffffffffffffffffffffff1614151561088d57fe5b6060604051908101604052808673ffffffffffffffffffffffffffffffffffffffff168152602001600460003373ffffffffffffffffffffffffffffffffffffffff1673ffffffffffffffffffffffffffffffffffffffff168152602001908152602001600020600101548152602001600460003373ffffffffffffffffffffffffffffffffffffffff1673ffffffffffffffffffffffffffffffffffffffff16815260200190815260200160002060020154815250600460008773ffffffffffffffffffffffffffffffffffffffff1673ffffffffffffffffffffffffffffffffffffffff16815260200190815260200160002060008201518160000160006101000a81548173ffffffffffffffffffffffffffffffffffffffff021916908373ffffffffffffffffffffffffffffffffffffffff1602179055506020820151816001015560408201518160020155905050600460003373ffffffffffffffffffffffffffffffffffffffff1673ffffffffffffffffffffffffffffffffffffffff168152602001908152602001600020600080820160006101000a81549073ffffffffffffffffffffffffffffffffffffffff02191690556001820160009055600282016000905550505050505050565b600080600460008473ffffffffffffffffffffffffffffffffffffffff1673ffffffffffffffffffffffffffffffffffffffff168152602001908152602001600020600101549150600460008473ffffffffffffffffffffffffffffffffffffffff1673ffffffffffffffffffffffffffffffffffffffff168152602001908152602001600020600201549050915091565b60008060003073ffffffffffffffffffffffffffffffffffffffff1631925060006001541115610b2757610b2461049c565b91505b6002549050909192565b6000809054906101000a900473ffffffffffffffffffffffffffffffffffffffff1681565b60003073ffffffffffffffffffffffffffffffffffffffff1631905090565b600080336000600460008373ffffffffffffffffffffffffffffffffffffffff1673ffffffffffffffffffffffffffffffffffffffff168152602001908152602001600020905060008160000160009054906101000a900473ffffffffffffffffffffffffffffffffffffffff1673ffffffffffffffffffffffffffffffffffffffff1614151515610c0357fe5b600460003373ffffffffffffffffffffffffffffffffffffffff1673ffffffffffffffffffffffffffffffffffffffff1681526020019081526020016000209350610c5c600a856002015461168b90919063ffffffff16565b9250610c66611122565b83101515610c7057fe5b82600460003373ffffffffffffffffffffffffffffffffffffffff1673ffffffffffffffffffffffffffffffffffffffff168152602001908152602001600020600201819055508360000160009054906101000a900473ffffffffffffffffffffffffffffffffffffffff1673ffffffffffffffffffffffffffffffffffffffff166108fc85600101549081150290604051600060405180830381858888f193505050501515610d1f57600080fd5b50505050565b60046020528060005260406000206000915090508060000160009054906101000a900473ffffffffffffffffffffffffffffffffffffffff16908060010154908060020154905083565b6000806000809054906101000a900473ffffffffffffffffffffffffffffffffffffffff1673ffffffffffffffffffffffffffffffffffffffff163373ffffffffffffffffffffffffffffffffffffffff16141515610dcd57600080fd5b826000600460008373ffffffffffffffffffffffffffffffffffffffff1673ffffffffffffffffffffffffffffffffffffffff168152602001908152602001600020905060008160000160009054906101000a900473ffffffffffffffffffffffffffffffffffffffff1673ffffffffffffffffffffffffffffffffffffffff1614151515610e5857fe5b600460008673ffffffffffffffffffffffffffffffffffffffff1673ffffffffffffffffffffffffffffffffffffffff1681526020019081526020016000209350610f1884606060405190810160405290816000820160009054906101000a900473ffffffffffffffffffffffffffffffffffffffff1673ffffffffffffffffffffffffffffffffffffffff1673ffffffffffffffffffffffffffffffffffffffff168152602001600182015481526020016002820154815250506115ac565b610f31846001015460015461167290919063ffffffff16565b600181905550610f4d600160025461167290919063ffffffff16565b600281905550600092505b6003805490508360ff1610156110a2578473ffffffffffffffffffffffffffffffffffffffff1660038460ff16815481101515610f9157fe5b906000526020600020900160009054906101000a900473ffffffffffffffffffffffffffffffffffffffff1673ffffffffffffffffffffffffffffffffffffffff161415611095576003600160038054905003815481101515610ff057fe5b906000526020600020900160009054906101000a900473ffffffffffffffffffffffffffffffffffffffff1660038460ff1681548110151561102e57fe5b906000526020600020900160006101000a81548173ffffffffffffffffffffffffffffffffffffffff021916908373ffffffffffffffffffffffffffffffffffffffff160217905550600160038181805490500391508161108f91906116a9565b506110a2565b8280600101935050610f58565b600460008673ffffffffffffffffffffffffffffffffffffffff1673ffffffffffffffffffffffffffffffffffffffff168152602001908152602001600020600080820160006101000a81549073ffffffffffffffffffffffffffffffffffffffff02191690556001820160009055600282016000905550505050505050565b600042905090565b60008060009054906101000a900473ffffffffffffffffffffffffffffffffffffffff1673ffffffffffffffffffffffffffffffffffffffff163373ffffffffffffffffffffffffffffffffffffffff1614151561118757600080fd5b826000600460008373ffffffffffffffffffffffffffffffffffffffff1673ffffffffffffffffffffffffffffffffffffffff168152602001908152602001600020905060008160000160009054906101000a900473ffffffffffffffffffffffffffffffffffffffff1673ffffffffffffffffffffffffffffffffffffffff1614151561121157fe5b600460008673ffffffffffffffffffffffffffffffffffffffff1673ffffffffffffffffffffffffffffffffffffffff1681526020019081526020016000209250611281611270670de0b6b3a76400008661163f90919063ffffffff16565b60015461168b90919063ffffffff16565b60018190555061129d600160025461168b90919063ffffffff16565b6002819055506060604051908101604052808673ffffffffffffffffffffffffffffffffffffffff1681526020016112e6670de0b6b3a76400008761163f90919063ffffffff16565b81526020016112f3611122565b815250600460008773ffffffffffffffffffffffffffffffffffffffff1673ffffffffffffffffffffffffffffffffffffffff16815260200190815260200160002060008201518160000160006101000a81548173ffffffffffffffffffffffffffffffffffffffff021916908373ffffffffffffffffffffffffffffffffffffffff1602179055506020820151816001015560408201518160020155905050600380548060010182816113a791906116d5565b9160005260206000209001600087909190916101000a81548173ffffffffffffffffffffffffffffffffffffffff021916908373ffffffffffffffffffffffffffffffffffffffff160217905550505050505050565b6000809054906101000a900473ffffffffffffffffffffffffffffffffffffffff1673ffffffffffffffffffffffffffffffffffffffff163373ffffffffffffffffffffffffffffffffffffffff1614151561145857600080fd5b600073ffffffffffffffffffffffffffffffffffffffff168173ffffffffffffffffffffffffffffffffffffffff161415151561149457600080fd5b8073ffffffffffffffffffffffffffffffffffffffff166000809054906101000a900473ffffffffffffffffffffffffffffffffffffffff1673ffffffffffffffffffffffffffffffffffffffff167f8be0079c531659141344cd1fd0a4f28419497f9722a3daafe3b4186f6b6457e060405160405180910390a3806000806101000a81548173ffffffffffffffffffffffffffffffffffffffff021916908373ffffffffffffffffffffffffffffffffffffffff16021790555050565b60038181548110151561156157fe5b90600052602060002090016000915054906101000a900473ffffffffffffffffffffffffffffffffffffffff1681565b600080828481151561159f57fe5b0490508091505092915050565b60006115f5600a6115e76115d485604001516115c6611122565b61167290919063ffffffff16565b856020015161163f90919063ffffffff16565b61159190919063ffffffff16565b9050816000015173ffffffffffffffffffffffffffffffffffffffff166108fc829081150290604051600060405180830381858888f19350505050151561163b57600080fd5b5050565b60008082840290506000841480611660575082848281151561165d57fe5b04145b151561166857fe5b8091505092915050565b600082821115151561168057fe5b818303905092915050565b600080828401905083811015151561169f57fe5b8091505092915050565b8154818355818115116116d0578183600052602060002091820191016116cf9190611701565b5b505050565b8154818355818115116116fc578183600052602060002091820191016116fb9190611701565b5b505050565b61172391905b8082111561171f576000816000905550600101611707565b5090565b905600a165627a7a7230582074e95bf908f28af17a4c26716148333cc263f5ac8578aec879f9698d50f4d3400029",
  "source": "pragma solidity ^0.4.14;\n\nimport './Ownable.sol';\nimport './SafeMath.sol';\n\ncontract Payroll is Ownable {\n    using SafeMath for uint;\n    struct Employee {\n        address id;\n        uint salary;\n        uint lastPayDay;\n    }\n\n    uint constant payDuration = 10 seconds;\n    uint totalSalary;\n    uint totalEmployee;\n    address[] public EmployeeList;\n\n    mapping(address => Employee) public employees;\n    \n    modifier employeeExist(address employeeId) {\n        var employee = employees[employeeId];\n        assert(employee.id != 0X0);\n        _;\n    }\n    \n    modifier employeeNotExist(address employeeId) {\n        var employee = employees[employeeId];\n        assert(employee.id == 0X0);\n        _;\n    }\n    \n    function _partialPaid(Employee employee) private {\n        uint payment = employee.salary.mul(currentTime().sub(employee.lastPayDay)).div(payDuration);\n        employee.id.transfer(payment);\n    }\n\n    function currentTime() returns (uint) {\n        return now;\n    }\n    \n    function addEmployee(address employeeId, uint salary) onlyOwner employeeNotExist(employeeId) {\n        var employee = employees[employeeId];\n        \n        totalSalary = totalSalary.add(salary.mul(1 ether));\n        totalEmployee = totalEmployee.add(1);\n        employees[employeeId] = Employee(employeeId, salary.mul(1 ether), currentTime());\n        EmployeeList.push(employeeId);\n    }\n    \n    function removeEmployee(address employeeId) onlyOwner employeeExist(employeeId) {\n        var employee = employees[employeeId];\n        \n        _partialPaid(employee);\n        totalSalary = totalSalary.sub(employee.salary);\n        totalEmployee = totalEmployee.sub(1);\n\n         for(var i = 0; i < EmployeeList.length; i++) {\n            if (EmployeeList[i] == employeeId) {\n                EmployeeList[i] = EmployeeList[EmployeeList.length - 1];\n                EmployeeList.length -= 1;\n                break;\n            }\n        }       \n        delete employees[employeeId];\n    }\n    \n    function updateEmployee(address employeeId, uint salary) onlyOwner employeeExist(employeeId) {\n        var employee = employees[employeeId];\n        \n        _partialPaid(employee);\n        totalSalary = totalSalary.sub(employee.salary).add(salary.mul(1 ether));\n        employees[employeeId].salary = salary.mul(1 ether);\n        employees[employeeId].lastPayDay = currentTime();\n    }\n    \n    function changePaymentAddress(address newEmployeeId) employeeExist(msg.sender) employeeNotExist(newEmployeeId) {\n        employees[newEmployeeId] = Employee(newEmployeeId, employees[msg.sender].salary, employees[msg.sender].lastPayDay);\n        delete employees[msg.sender];\n    }\n\n    function addFund() payable returns (uint) {\n        return this.balance;\n    }\n    \n    function calculateRunway() returns (uint) {\n        return this.balance.div(totalSalary);\n    }\n    \n    function hasEnoughFund() returns (bool) {\n        return calculateRunway() > 0;\n    }\n    \n    function checkEmployee(address employeeId) returns (uint salary, uint lastPayDay) {\n        salary = employees[employeeId].salary;\n        lastPayDay = employees[employeeId].lastPayDay;\n    }\n    \n    function getPaid() employeeExist(msg.sender) {\n        var employee = employees[msg.sender];\n        \n        uint nextPayday = employee.lastPayDay.add(payDuration);\n        assert(nextPayday < currentTime());\n        \n        employees[msg.sender].lastPayDay = nextPayday;\n        employee.id.transfer(employee.salary);\n    }\n\n    function checkInfo() returns (uint balance, uint runway, uint employeeCount) {\n        balance = this.balance;\n        if (totalSalary > 0) {\n            runway = calculateRunway();\n        }\n        employeeCount = totalEmployee;\n    }\n}",
  "sourcePath": "/home/juicebox/payroll/contracts/Payroll.sol",
  "compiler": {
    "name": "solc",
    "version": "0.4.18+commit.9cf6e910.Emscripten.clang"
  },
  "schemaVersion": "1.0.1",
  "updatedAt": "2017-11-18T01:43:11.334Z"
}